{
  "abi": [
    {
      "inputs": [],
      "stateMutability": "nonpayable",
      "type": "constructor"
    },
    {
      "anonymous": false,
      "inputs": [
        {
          "indexed": true,
          "internalType": "address",
          "name": "owner",
          "type": "address"
        },
        {
          "indexed": true,
          "internalType": "address",
          "name": "approved",
          "type": "address"
        },
        {
          "indexed": true,
          "internalType": "uint256",
          "name": "tokenId",
          "type": "uint256"
        }
      ],
      "name": "Approval",
      "type": "event"
    },
    {
      "anonymous": false,
      "inputs": [
        {
          "indexed": true,
          "internalType": "address",
          "name": "owner",
          "type": "address"
        },
        {
          "indexed": true,
          "internalType": "address",
          "name": "operator",
          "type": "address"
        },
        {
          "indexed": false,
          "internalType": "bool",
          "name": "approved",
          "type": "bool"
        }
      ],
      "name": "ApprovalForAll",
      "type": "event"
    },
    {
      "anonymous": false,
      "inputs": [
        {
          "indexed": true,
          "internalType": "address",
          "name": "from",
          "type": "address"
        },
        {
          "indexed": true,
          "internalType": "address",
          "name": "to",
          "type": "address"
        },
        {
          "indexed": true,
          "internalType": "uint256",
          "name": "tokenId",
          "type": "uint256"
        }
      ],
      "name": "Transfer",
      "type": "event"
    },
    {
      "inputs": [
        {
          "internalType": "address",
          "name": "to",
          "type": "address"
        },
        {
          "internalType": "uint256",
          "name": "tokenId",
          "type": "uint256"
        }
      ],
      "name": "approve",
      "outputs": [],
      "stateMutability": "nonpayable",
      "type": "function"
    },
    {
      "inputs": [
        {
          "internalType": "address",
          "name": "owner",
          "type": "address"
        }
      ],
      "name": "balanceOf",
      "outputs": [
        {
          "internalType": "uint256",
          "name": "",
          "type": "uint256"
        }
      ],
      "stateMutability": "view",
      "type": "function"
    },
    {
      "inputs": [
        {
          "internalType": "uint256",
          "name": "tokenId",
          "type": "uint256"
        }
      ],
      "name": "getApproved",
      "outputs": [
        {
          "internalType": "address",
          "name": "",
          "type": "address"
        }
      ],
      "stateMutability": "view",
      "type": "function"
    },
    {
      "inputs": [
        {
          "internalType": "address",
          "name": "owner",
          "type": "address"
        },
        {
          "internalType": "address",
          "name": "operator",
          "type": "address"
        }
      ],
      "name": "isApprovedForAll",
      "outputs": [
        {
          "internalType": "bool",
          "name": "",
          "type": "bool"
        }
      ],
      "stateMutability": "view",
      "type": "function"
    },
    {
      "inputs": [
        {
          "internalType": "string",
          "name": "tokenUri",
          "type": "string"
        }
      ],
      "name": "mint",
      "outputs": [
        {
          "internalType": "uint256",
          "name": "",
          "type": "uint256"
        }
      ],
      "stateMutability": "nonpayable",
      "type": "function"
    },
    {
      "inputs": [],
      "name": "name",
      "outputs": [
        {
          "internalType": "string",
          "name": "",
          "type": "string"
        }
      ],
      "stateMutability": "view",
      "type": "function"
    },
    {
      "inputs": [
        {
          "internalType": "uint256",
          "name": "tokenId",
          "type": "uint256"
        }
      ],
      "name": "ownerOf",
      "outputs": [
        {
          "internalType": "address",
          "name": "",
          "type": "address"
        }
      ],
      "stateMutability": "view",
      "type": "function"
    },
    {
      "inputs": [
        {
          "internalType": "address",
          "name": "from",
          "type": "address"
        },
        {
          "internalType": "address",
          "name": "to",
          "type": "address"
        },
        {
          "internalType": "uint256",
          "name": "tokenId",
          "type": "uint256"
        }
      ],
      "name": "safeTransferFrom",
      "outputs": [],
      "stateMutability": "nonpayable",
      "type": "function"
    },
    {
      "inputs": [
        {
          "internalType": "address",
          "name": "from",
          "type": "address"
        },
        {
          "internalType": "address",
          "name": "to",
          "type": "address"
        },
        {
          "internalType": "uint256",
          "name": "tokenId",
          "type": "uint256"
        },
        {
          "internalType": "bytes",
          "name": "data",
          "type": "bytes"
        }
      ],
      "name": "safeTransferFrom",
      "outputs": [],
      "stateMutability": "nonpayable",
      "type": "function"
    },
    {
      "inputs": [
        {
          "internalType": "address",
          "name": "operator",
          "type": "address"
        },
        {
          "internalType": "bool",
          "name": "approved",
          "type": "bool"
        }
      ],
      "name": "setApprovalForAll",
      "outputs": [],
      "stateMutability": "nonpayable",
      "type": "function"
    },
    {
      "inputs": [
        {
          "internalType": "bytes4",
          "name": "interfaceId",
          "type": "bytes4"
        }
      ],
      "name": "supportsInterface",
      "outputs": [
        {
          "internalType": "bool",
          "name": "",
          "type": "bool"
        }
      ],
      "stateMutability": "view",
      "type": "function"
    },
    {
      "inputs": [],
      "name": "symbol",
      "outputs": [
        {
          "internalType": "string",
          "name": "",
          "type": "string"
        }
      ],
      "stateMutability": "view",
      "type": "function"
    },
    {
      "inputs": [
        {
          "internalType": "uint256",
          "name": "tokenId",
          "type": "uint256"
        }
      ],
      "name": "tokenURI",
      "outputs": [
        {
          "internalType": "string",
          "name": "",
          "type": "string"
        }
      ],
      "stateMutability": "view",
      "type": "function"
    },
    {
      "inputs": [
        {
          "internalType": "address",
          "name": "from",
          "type": "address"
        },
        {
          "internalType": "address",
          "name": "to",
          "type": "address"
        },
        {
          "internalType": "uint256",
          "name": "tokenId",
          "type": "uint256"
        }
      ],
      "name": "transferFrom",
      "outputs": [],
      "stateMutability": "nonpayable",
      "type": "function"
    }
  ],
  "bytecode": {
    "object": "0x60806040523480156200001157600080fd5b50604051806040016040528060058152602001644644656d6f60d81b81525060405180604001604052806002815260200161119160f21b81525081600090816200005c919062000119565b5060016200006b828262000119565b505050620001e5565b634e487b7160e01b600052604160045260246000fd5b600181811c908216806200009f57607f821691505b602082108103620000c057634e487b7160e01b600052602260045260246000fd5b50919050565b601f8211156200011457600081815260208120601f850160051c81016020861015620000ef5750805b601f850160051c820191505b818110156200011057828155600101620000fb565b5050505b505050565b81516001600160401b0381111562000135576200013562000074565b6200014d816200014684546200008a565b84620000c6565b602080601f8311600181146200018557600084156200016c5750858301515b600019600386901b1c1916600185901b17855562000110565b600085815260208120601f198616915b82811015620001b65788860151825594840194600190910190840162000195565b5085821015620001d55787850151600019600388901b60f8161c191681555b5050505050600190811b01905550565b6115eb80620001f56000396000f3fe608060405234801561001057600080fd5b50600436106100ea5760003560e01c806370a082311161008c578063b88d4fde11610066578063b88d4fde146101e1578063c87b56dd146101f4578063d85d3d2714610207578063e985e9c51461021a57600080fd5b806370a08231146101a557806395d89b41146101c6578063a22cb465146101ce57600080fd5b8063095ea7b3116100c8578063095ea7b31461015757806323b872dd1461016c57806342842e0e1461017f5780636352211e1461019257600080fd5b806301ffc9a7146100ef57806306fdde0314610117578063081812fc1461012c575b600080fd5b6101026100fd36600461100a565b610256565b60405190151581526020015b60405180910390f35b61011f6102a8565b60405161010e9190611077565b61013f61013a36600461108a565b61033a565b6040516001600160a01b03909116815260200161010e565b61016a6101653660046110bf565b610361565b005b61016a61017a3660046110e9565b61047b565b61016a61018d3660046110e9565b6104ac565b61013f6101a036600461108a565b6104c7565b6101b86101b3366004611125565b610527565b60405190815260200161010e565b61011f6105ad565b61016a6101dc366004611140565b6105bc565b61016a6101ef366004611208565b6105cb565b61011f61020236600461108a565b610603565b6101b8610215366004611284565b610713565b6101026102283660046112cd565b6001600160a01b03918216600090815260056020908152604080832093909416825291909152205460ff1690565b60006001600160e01b031982166380ac58cd60e01b148061028757506001600160e01b03198216635b5e139f60e01b145b806102a257506301ffc9a760e01b6001600160e01b03198316145b92915050565b6060600080546102b790611300565b80601f01602080910402602001604051908101604052809291908181526020018280546102e390611300565b80156103305780601f1061030557610100808354040283529160200191610330565b820191906000526020600020905b81548152906001019060200180831161031357829003601f168201915b5050505050905090565b600061034582610743565b506000908152600460205260409020546001600160a01b031690565b600061036c826104c7565b9050806001600160a01b0316836001600160a01b0316036103de5760405162461bcd60e51b815260206004820152602160248201527f4552433732313a20617070726f76616c20746f2063757272656e74206f776e656044820152603960f91b60648201526084015b60405180910390fd5b336001600160a01b03821614806103fa57506103fa8133610228565b61046c5760405162461bcd60e51b815260206004820152603d60248201527f4552433732313a20617070726f76652063616c6c6572206973206e6f7420746f60448201527f6b656e206f776e6572206f7220617070726f76656420666f7220616c6c00000060648201526084016103d5565b61047683836107a5565b505050565b6104853382610813565b6104a15760405162461bcd60e51b81526004016103d59061133a565b610476838383610891565b610476838383604051806020016040528060008152506105cb565b6000818152600260205260408120546001600160a01b0316806102a25760405162461bcd60e51b8152602060048201526018602482015277115490cdcc8c4e881a5b9d985b1a59081d1bdad95b88125160421b60448201526064016103d5565b60006001600160a01b0382166105915760405162461bcd60e51b815260206004820152602960248201527f4552433732313a2061646472657373207a65726f206973206e6f7420612076616044820152683634b21037bbb732b960b91b60648201526084016103d5565b506001600160a01b031660009081526003602052604090205490565b6060600180546102b790611300565b6105c73383836109f5565b5050565b6105d53383610813565b6105f15760405162461bcd60e51b81526004016103d59061133a565b6105fd84848484610ac3565b50505050565b606061060e82610743565b6000828152600660205260408120805461062790611300565b80601f016020809104026020016040519081016040528092919081815260200182805461065390611300565b80156106a05780601f10610675576101008083540402835291602001916106a0565b820191906000526020600020905b81548152906001019060200180831161068357829003601f168201915b5050505050905060006106be60408051602081019091526000815290565b905080516000036106d0575092915050565b8151156107025780826040516020016106ea929190611387565b60405160208183030381529060405292505050919050565b61070b84610af6565b949350505050565b60008061071f60075490565b905061072b3382610b6a565b6107358184610cf5565b6102a2600780546001019055565b6000818152600260205260409020546001600160a01b03166107a25760405162461bcd60e51b8152602060048201526018602482015277115490cdcc8c4e881a5b9d985b1a59081d1bdad95b88125160421b60448201526064016103d5565b50565b600081815260046020526040902080546001600160a01b0319166001600160a01b03841690811790915581906107da826104c7565b6001600160a01b03167f8c5be1e5ebec7d5bd14f71427d1e84f3dd0314c0f7b2291e5b200ac8c7c3b92560405160405180910390a45050565b60008061081f836104c7565b9050806001600160a01b0316846001600160a01b0316148061086657506001600160a01b0380821660009081526005602090815260408083209388168352929052205460ff165b8061070b5750836001600160a01b031661087f8461033a565b6001600160a01b031614949350505050565b826001600160a01b03166108a4826104c7565b6001600160a01b0316146108ca5760405162461bcd60e51b81526004016103d5906113b6565b6001600160a01b03821661092c5760405162461bcd60e51b8152602060048201526024808201527f4552433732313a207472616e7366657220746f20746865207a65726f206164646044820152637265737360e01b60648201526084016103d5565b826001600160a01b031661093f826104c7565b6001600160a01b0316146109655760405162461bcd60e51b81526004016103d5906113b6565b600081815260046020908152604080832080546001600160a01b03199081169091556001600160a01b0387811680865260038552838620805460001901905590871680865283862080546001019055868652600290945282852080549092168417909155905184937fddf252ad1be2c89b69c2b068fc378daa952ba7f163c4a11628f55a4df523b3ef91a4505050565b816001600160a01b0316836001600160a01b031603610a565760405162461bcd60e51b815260206004820152601960248201527f4552433732313a20617070726f766520746f2063616c6c65720000000000000060448201526064016103d5565b6001600160a01b03838116600081815260056020908152604080832094871680845294825291829020805460ff191686151590811790915591519182527f17307eab39ab6107e8899845ad3d59bd9653f200f220920489ca2b5937696c31910160405180910390a3505050565b610ace848484610891565b610ada84848484610d88565b6105fd5760405162461bcd60e51b81526004016103d5906113fb565b6060610b0182610743565b6000610b1860408051602081019091526000815290565b90506000815111610b385760405180602001604052806000815250610b63565b80610b4284610e89565b604051602001610b53929190611387565b6040516020818303038152906040525b9392505050565b6001600160a01b038216610bc05760405162461bcd60e51b815260206004820181905260248201527f4552433732313a206d696e7420746f20746865207a65726f206164647265737360448201526064016103d5565b6000818152600260205260409020546001600160a01b031615610c255760405162461bcd60e51b815260206004820152601c60248201527f4552433732313a20746f6b656e20616c7265616479206d696e7465640000000060448201526064016103d5565b6000818152600260205260409020546001600160a01b031615610c8a5760405162461bcd60e51b815260206004820152601c60248201527f4552433732313a20746f6b656e20616c7265616479206d696e7465640000000060448201526064016103d5565b6001600160a01b038216600081815260036020908152604080832080546001019055848352600290915280822080546001600160a01b0319168417905551839291907fddf252ad1be2c89b69c2b068fc378daa952ba7f163c4a11628f55a4df523b3ef908290a45050565b6000828152600260205260409020546001600160a01b0316610d705760405162461bcd60e51b815260206004820152602e60248201527f45524337323155524953746f726167653a2055524920736574206f66206e6f6e60448201526d32bc34b9ba32b73a103a37b5b2b760911b60648201526084016103d5565b6000828152600660205260409020610476828261149b565b60006001600160a01b0384163b15610e7e57604051630a85bd0160e11b81526001600160a01b0385169063150b7a0290610dcc90339089908890889060040161155b565b6020604051808303816000875af1925050508015610e07575060408051601f3d908101601f19168201909252610e0491810190611598565b60015b610e64573d808015610e35576040519150601f19603f3d011682016040523d82523d6000602084013e610e3a565b606091505b508051600003610e5c5760405162461bcd60e51b81526004016103d5906113fb565b805181602001fd5b6001600160e01b031916630a85bd0160e11b14905061070b565b506001949350505050565b60606000610e9683610f1c565b600101905060008167ffffffffffffffff811115610eb657610eb661117c565b6040519080825280601f01601f191660200182016040528015610ee0576020820181803683370190505b5090508181016020015b600019016f181899199a1a9b1b9c1cb0b131b232b360811b600a86061a8153600a8504945084610eea57509392505050565b60008072184f03e93ff9f4daa797ed6e38ed64bf6a1f0160401b8310610f5b5772184f03e93ff9f4daa797ed6e38ed64bf6a1f0160401b830492506040015b6d04ee2d6d415b85acef81000000008310610f87576d04ee2d6d415b85acef8100000000830492506020015b662386f26fc100008310610fa557662386f26fc10000830492506010015b6305f5e1008310610fbd576305f5e100830492506008015b6127108310610fd157612710830492506004015b60648310610fe3576064830492506002015b600a83106102a25760010192915050565b6001600160e01b0319811681146107a257600080fd5b60006020828403121561101c57600080fd5b8135610b6381610ff4565b60005b8381101561104257818101518382015260200161102a565b50506000910152565b60008151808452611063816020860160208601611027565b601f01601f19169290920160200192915050565b602081526000610b63602083018461104b565b60006020828403121561109c57600080fd5b5035919050565b80356001600160a01b03811681146110ba57600080fd5b919050565b600080604083850312156110d257600080fd5b6110db836110a3565b946020939093013593505050565b6000806000606084860312156110fe57600080fd5b611107846110a3565b9250611115602085016110a3565b9150604084013590509250925092565b60006020828403121561113757600080fd5b610b63826110a3565b6000806040838503121561115357600080fd5b61115c836110a3565b91506020830135801515811461117157600080fd5b809150509250929050565b634e487b7160e01b600052604160045260246000fd5b600067ffffffffffffffff808411156111ad576111ad61117c565b604051601f8501601f19908116603f011681019082821181831017156111d5576111d561117c565b816040528093508581528686860111156111ee57600080fd5b858560208301376000602087830101525050509392505050565b6000806000806080858703121561121e57600080fd5b611227856110a3565b9350611235602086016110a3565b925060408501359150606085013567ffffffffffffffff81111561125857600080fd5b8501601f8101871361126957600080fd5b61127887823560208401611192565b91505092959194509250565b60006020828403121561129657600080fd5b813567ffffffffffffffff8111156112ad57600080fd5b8201601f810184136112be57600080fd5b61070b84823560208401611192565b600080604083850312156112e057600080fd5b6112e9836110a3565b91506112f7602084016110a3565b90509250929050565b600181811c9082168061131457607f821691505b60208210810361133457634e487b7160e01b600052602260045260246000fd5b50919050565b6020808252602d908201527f4552433732313a2063616c6c6572206973206e6f7420746f6b656e206f776e6560408201526c1c881bdc88185c1c1c9bdd9959609a1b606082015260800190565b60008351611399818460208801611027565b8351908301906113ad818360208801611027565b01949350505050565b60208082526025908201527f4552433732313a207472616e736665722066726f6d20696e636f72726563742060408201526437bbb732b960d91b606082015260800190565b60208082526032908201527f4552433732313a207472616e7366657220746f206e6f6e20455243373231526560408201527131b2b4bb32b91034b6b83632b6b2b73a32b960711b606082015260800190565b601f82111561047657600081815260208120601f850160051c810160208610156114745750805b601f850160051c820191505b8181101561149357828155600101611480565b505050505050565b815167ffffffffffffffff8111156114b5576114b561117c565b6114c9816114c38454611300565b8461144d565b602080601f8311600181146114fe57600084156114e65750858301515b600019600386901b1c1916600185901b178555611493565b600085815260208120601f198616915b8281101561152d5788860151825594840194600190910190840161150e565b508582101561154b5787850151600019600388901b60f8161c191681555b5050505050600190811b01905550565b6001600160a01b038581168252841660208201526040810183905260806060820181905260009061158e9083018461104b565b9695505050505050565b6000602082840312156115aa57600080fd5b8151610b6381610ff456fea2646970667358221220a16fa6b55c3e9ee9f3cd48a712812ac1b6457ebedfa2088389b66452564bf81764736f6c63430008130033",
    "linkReferences": {}
  },
  "methodIdentifiers": {
    "approve(address,uint256)": "095ea7b3",
    "balanceOf(address)": "70a08231",
    "getApproved(uint256)": "081812fc",
    "isApprovedForAll(address,address)": "e985e9c5",
    "mint(string)": "d85d3d27",
    "name()": "06fdde03",
    "ownerOf(uint256)": "6352211e",
    "safeTransferFrom(address,address,uint256)": "42842e0e",
    "safeTransferFrom(address,address,uint256,bytes)": "b88d4fde",
    "setApprovalForAll(address,bool)": "a22cb465",
    "supportsInterface(bytes4)": "01ffc9a7",
    "symbol()": "95d89b41",
    "tokenURI(uint256)": "c87b56dd",
    "transferFrom(address,address,uint256)": "23b872dd"
  },
  "id": 29
}